:020000020000FC
:1000000004E00EBF0FE50DBF0FEF0ABB01BB0E945E
:1000100078020E9478020E942702D89AD99800E0BC
:100020000E94170200E00E941D0204E00E944602A6
:1000300015E005E00F931F930E94C0011F910F91DF
:1000400013951937B8F30E948B0215E00CE30F9358
:100050001F930E94C0011F910F9113951937B8F398
:100060000E948B0215E006E00F931F930E94C001CF
:100070001F910F9103950D33B8F30E948B0218E77F
:1000800006E00F931F930E94C0011F910F910395EB
:100090000D33B8F30E948B021AE00AE00F931F930E
:1000A0000E94C0011F910F9113951536B8F31AE005
:1000B00002E30F931F930E94C0011F910F911395AC
:1000C0001536B8F31AE00AE00F931F930E94C0019F
:1000D0001F910F9103950333B8F314E60AE00F93D1
:1000E0001F930E94C0011F910F9103950333B8F332
:1000F0000E948B0214E104E10F931F930E94C00140
:100100001F910F9113951B35B8F314E108E20F937B
:100110001F930E94C0011F910F9113951B35B8F3D7
:1001200014E104E10F931F930E94C0011F910F91EE
:1001300003950932B8F31AE504E10F931F930E9467
:10014000C0011F910F9103950932B8F30E948B02F1
:100150001EE10EE10F931F930E94C0011F910F91AA
:1001600013951135B8F31EE10EE10F931F930E9412
:10017000C0011F910F9113951135B8F31EE10EE1E7
:100180000F931F930E94C0011F910F9103950F3190
:10019000B8F310E50EE10F931F930E94C0011F9169
:1001A0000F9103950F31B8F30E948B0218E208E219
:1001B0000F931F930E94C0011F910F911395173445
:1001C000B8F318E204E10F931F930E94C0011F913E
:1001D0000F9113951734B8F318E208E20F931F93A9
:1001E0000E94C0011F910F9103950531B8F316E4E9
:1001F00008E20F931F930E94C0011F910F91039576
:100200000531B8F30E948B020E943F01F0E1E0E06B
:1002100000E00F93D89AD99A0E9417020F910F937A
:100220000E9448010F910395083098F30E948B02B9
:100230000E9430020E948B020E9427020E948B02C1
:100240000E9430020E948B020E9427020E948B02B1
:100250000E9430020E948B020E94270200E00F934E
:100260000E9423020E9478020E9478020E94780273
:100270000E9478020F9103950F3388F3FFCF00E0BF
:100280000F930E9457010F9103950830C8F308950A
:1002900000E00E941D0200E00E9467010F9305919B
:1002A0000E9446020F9103950038B0F30895D89A42
:1002B000D99A0E94170200E00E9467010F9300E0A4
:1002C0000E9446020F9103950038B0F30895003460
:1002D00018F4D89AD9980895D99AD89808951034CE
:1002E00060F4D89AD9980F93012F1F930E941D0292
:1002F0001F910F910E948A010895D898D99A10549D
:100300000F93012F1F930E941D021F910F910E94B6
:100310008A0108951F930830E0F010E0085013950B
:100320000830E0F70F93012F0E9417020F910E94EF
:100330000F020F930E944C02102F0F910195012381
:10034000102E1F91012F0E941D02012D0E944602B6
:1003500008950F9300E00E9417020F910E940F0270
:100360000F930E944C02102F0F9101950123102E24
:100370001F91012F0E941D02012D0E944602089527
:10038000103460F4D89AD9980F93012F1F930E94CC
:100390001D021F910F910E94DB010895D898D99AF0
:1003A00010540F93012F1F930E941D021F910F9154
:1003B0000E94DB0108951F930830D8F010E0085028
:1003C00013950830E0F70F93012F0E9417020F9149
:1003D0000E940F020F930E944C02102F0F91012BCD
:1003E000102E1F91012F0E941D02012D0E94460216
:1003F00008950F9300E00E9417020F910E940F02D0
:100400000F930E944C02102F0F91012B102E1F9161
:10041000012F0E941D02012D0E944602089508949A
:1004200010E00395111F0A95E9F7012F0895077051
:1004300018EB012B0E94400208950F7310E4012B6A
:100440000E9440020895006C0E9440020895D89ACC
:10045000D99ADA98DB980FE302BB0E94390208951B
:10046000D89AD99ADA98DB980EE302BB0E94390237
:1004700008950E946602DC9A0E946602DC98089544
:10048000DA98DB9802BB0E9439020895DA9ADB9869
:1004900002BB0E943902089500E001BBDA9ADB9AA0
:1004A0000E947202DC9A0E947202DC980E9466022C
:1004B0000E946602DC9A0E94720200B3DC980E94DD
:1004C00072020F930FEF01BB0F9108954F9340E518
:1004D0004A95F1F74F9108954F934AE04A95F1F705
:1004E0004F9108954F9348E04A95F1F74F91089541
:1004F0004F935F9348E65FEF5A95F1F74A95D9F726
:100500005F914F9108954F934AE00E9478024A9577
:10051000E1F74F9108954F9344E60E9478024A957F
:10052000E1F74F9108954F934AE00E948B024A955C
:10053000E1F74F9108954F9345E00E948B024A9551
:06054000E1F74F91089560
:1010000000000000000000000000000000000000E0
:1010100000000000000000000000000000000000D0
:1010200000000000000000000000000000000000C0
:1010300000000000000000000000000000000000B0
:1010400000000000000000000000000000000000A0
:101050000000000000000000000000000000000090
:101060000000000000000000000000000000000080
:101070000000000000000000000000000000000070
:101080000000000000000000000000000000000060
:101090000000000000000000FEFEFE060606060638
:1010A000060606060CFCF8E0000000E0F0F8180C5C
:1010B000060606060606040C78F8E00000000000AC
:1010C000FEFEFE7CF8E0000000000000FEFEFE00D8
:1010D00000000080F0F8180C060606060606041C40
:1010E000F8F8E00000000000000000000000000030
:1010F00000000000000000000000000000000000F0
:1011000000000000000000000000000000000000DF
:101110000000000000000000FFFFFF0C0C0C0C0C96
:101120000C0C0C0E0E0703000000003FFFF98000BE
:101130000000000000000080E0FF7F0E00000000C3
:10114000FFFFFF000001071E3CF0C080FFFFFF0013
:101150000000003FFFFF800000000000000C0C0CAE
:10116000FCFCFC000000000000000000000000008B
:10117000000000000000000000000000000000006F
:10118000000000000000000000000000000000005F
:1011900000000000000000000F0F0F000000000022
:1011A000000000000000000000000000000001033B
:1011B000030F0E0E0F0303030100000000000000E8
:1011C0000F0F0F0000000000000001030F0F0F00C1
:1011D0000000000000000103030F0E0E0E0F0303BA
:1011E000010F0F00000000000000000000000000E0
:1011F00000000000000000000000000000000000EF
:1012000000000000000000000000000000000000DE
:1012100000000000000000000000000000000000CE
:1012200000000000000000000000000000C040407E
:10123000404040000000C0404040404040C00000EE
:1012400000C0404040404040C0000000C04040401E
:10125000404040C00000000000000000000000000E
:10126000000000000000000000000000000000007E
:10127000000000000000000000000000000000006E
:10128000000000000000000000000000000000005E
:10129000000000000000000000000000000000004E
:1012A0000000000000000000000000080F0808C84F
:1012B000380000C0380700000000C0380700C03800
:1012C0000700000000C0380700C038070000000019
:1012D000C03807000000000000000000000000000F
:1012E00000000000000000000000000000000000FE
:1012F00000000000000000000000000000000000EE
:1013000000000000000000000000000000000000DD
:1013100000000000000000000000000000000000CD
:1013200000000000000000010302020202020201AC
:101330000000010302020202020201000001030296
:101340000202020202010000010302020202020282
:10135000010000000000000000000000000000008C
:10136000000000000000000000000000000000007D
:10137000000000000000000000000000000000006D
:10138000000000000000000000000000000000005D
:10139000000000000000000000000000000000004D
:1013A000000000000000000000000000000000003D
:1013B000000000000000000000000000000000002D
:1013C000000000000000000000000000000000001D
:1013D000000000000000000000000000000000000D
:1013E00000000000000000000000000000000000FD
:1013F00000000000000000000000000000000000ED
:00000001FF
